:020000040800F2
:1000000000200020F93E0008E5320008E732000831
:1000100000000000000000000000000000000000E0
:10002000000000000000000000000000E9320008AD
:100030000000000000000000EB320008ED32000874
:10004000493F0008493F0008493F0008493F000870
:10005000493F0008493F0008493F0008F5320008C1
:10006000493F0008493F0008493F0008493F000850
:10007000493F0008493F0008493F0008493F000840
:10008000493F0008493F000800000000493F0008C0
:10009000493F0008493F0008493F0008493F000820
:1000A000493F0008493F0008493F0008493F000810
:1000B000493F000800000000493F00080000000020
:0400C0005FF808F1EC
:1000C400044B054A1A6000225A609A60DA60034AB7
:1000D4005A617047000401400000940FFFFF6B0059
:1000E400174B30B59C46027904688379E143624436
:1000F400002B1AD063461D680D401D605D682940C1
:1001040059601168214311609968026891439960AC
:10011400D9689143D960417910290AD0084B9C468B
:1001240061440B681A430A6002E0136819401160C5
:1001340030BD996811439960D9680A43DA60F7E7DA
:1001440000040140C02200231201036082808371F5
:100154007047C046024A1369034313617047C0469F
:1001640000040140034B5B691840431E9841C0B230
:100174007047C04600040140014B58617047C046B7
:10018400000401400300054A00201168526913422B
:1001940003D00B405A1E9341D8B27047000401406B
:1001A400014B58617047C04600040140902310B5CC
:1001B400DB05984217D0224B98421FD0214B98421E
:1001C40027D0214B984203D0204B98422CD010BD0D
:1001D40080200121400300F00BFB8020002140031C
:1001E40000F006FBF3E780200121800200F000FB11
:1001F40080200021800200F0FBFAE8E78020012142
:10020400C00200F0F5FA80200021C00200F0F0FAEC
:10021400DDE780200121000300F0EAFA80200021BC
:10022400000300F0E5FAD2E780200121C00300F0CA
:10023400DFFA80200021C00300F0DAFAC7E7C046E5
:100244000004004800080048000C0048001400485E
:10025400F0B5DE46454657464E460124E0B50B68E8
:10026400A34602349C4600220023A04683B003E048
:1002740001330232102B38D05C4665469C40254041
:10028400AC42F5D146469640F7430D7901976E1E70
:10029400012E14D886683E4086608668B2464E7940
:1002A4009640B14656464F463E4386608688A643EE
:1002B40086808E7984889E403443A4B2848095409D
:1002C4000468019E013326400660046825430560E6
:1002D40045469540C468AC43C460CC79C568944035
:1002E4002C43C4600232102BC6D103B0F0BCBB4611
:1002F400B246A946A046F0BD024B036080239B0092
:1003040043607047FFFF0000802382B05B020193CB
:10031400019B0B430193019BC361C161019BC361B9
:10032400C3690193C369019302B07047038A1940FA
:100334000800431E9841C0B27047C046008A80B28C
:100344007047C046838A19400800431E9841C0B2D2
:100354007047C046808A80B27047C046816170474A
:1003640001857047002A01D0816170470185FCE74F
:1003740081827047072310B50F240B409B009C40DB
:100384009A40C90889004018016AA1430162016AC0
:100394000A43026210BDC0460121114B11481A687C
:1003A4000A431A605A6802405A601A680E480240AA
:1003B4001A601A680D4802401A605A680C480240D4
:1003C4000F205A60DA6A8243DA621A6B09480240E3
:1003D4001A635A6B8A435A6300229A607047C04674
:1003E400001002400CB8FFF8FFFFF6FEFFFFFBFF12
:1003F400FFFFC0FFACFEFFFF0022024B1A70187013
:100404007047C0460210024000238022A02082B020
:100414000B4901939202C0000B68134209D0019B5F
:1004240001330193019B064B18688003C00F02B08F
:100434007047019B01330193019B8342ECD1F2E7A6
:1004440000100240F821034AC00013688B4318438C
:100454001060704700100240054A0121136800280B
:1004640002D00B43136070478B431360FBE7C04615
:1004740000100240F821034AC000536B8B43184319
:100484005063704700100240054A0121536B002855
:1004940002D00B43536370478B435363FBE7C0465F
:1004A40000100240054A0421536B002802D08B43FC
:1004B400536370470B435363FBE7C046001002408D
:1004C4000121064B1A6A8A431A621A6A03318A4363
:1004D4001A621A6A02431A627047C0460010024048
:1004E4001821044B1A6A8A431A621A6A02431A626E
:1004F4007047C04600100240054A0121536A002893
:1005040002D00B43536270478B435362FBE7C046F0
:1005140000100240054A10B55368054C234053604F
:1005240053680B430343536010BDC04600100240A0
:10053400FFFFC2FF064A002805D0802311685B0430
:100544000B4313607047136802490B401360F9E7CB
:1005540000100240FFFFFFFE0F21034AD36A8B43C2
:100564000343D3627047C04600100240064A002885
:1005740005D0802311681B030B4313607047136875
:1005840002490B401360F9E700100240FFFFF7FF38
:10059400014B18707047C046071002400321034AFC
:1005A40053688B43034353607047C04600100240B6
:1005B4000C20024B5B6818407047C0460010024094
:1005C400F021034A53688B43034353607047C0468A
:1005D40000100240034A044953680B40034353602C
:1005E4007047C04600100240FFF8FFFF094B0A495C
:1005F4005A680A405A6059680204120C0A435A6045
:100604001A6B0649000C0A401A631A6B10431863EC
:100614007047C04600100240FFBFFFFFFFFEFFFF10
:100624004021044B1A6B8A431A631A6B02431A6300
:100634007047C046001002401021044B1A6B8A43D5
:100644001A631A6B02431A637047C04600100240D3
:100654000321044B1A6B8A431A631A6B02431A630D
:100664007047C046001002400C23344A70B55168EC
:1006740004000B40082B42D0314802002F4920606F
:100684004B68304D1B061B0FEB5CDA4062604B6815
:100694005B055B0FEB5CDA40A2600B6BDB051BD5E3
:1006A40049689308490428D511252449E3600B6B54
:1006B4005B06DB17AB43244DAC46634423610B6BF1
:1006C4000100DB0600D41E49032361611B490D6B45
:1006D4002B4203D1A26170BD1C4BE5E70A6B1A40A3
:1006E400012A1CD00A6B1A40022A22D00A6B13403A
:1006F400032BF0D1124BA361EDE75308D4E70F218C
:1007040050685368800C0840851CDB0309D46A01D7
:10071400521B93019B1ADB005B191802ADE7A06121
:10072400D9E7D36A06481940013100F051FB684308
:10073400A3E780231B02A361CDE7C046001002405B
:1007440000127A00583F000812800000809FD500F4
:10075400024A136A034313627047C0460010024002
:10076400064A002805D08023116A1B020B4313623A
:100774007047136A02490B401362F9E70010024004
:10078400FF7FFFFF064A002805D08023116A5B0221
:100794000B4313627047136A02490B401362F9E773
:1007A40000100240FFFFFEFF044A5369002902D0F3
:1007B40003435361704783435361FBE700100240D6
:1007C400044A9369002902D0034393617047834329
:1007D4009361FBE700100240044AD369002902D068
:1007E4000343D36170478343D361FBE700100240A6
:1007F400044A936A002902D00343936270478343F7
:100804009362FBE700100240044AD368002902D037
:100814000343D36070478343D360FBE70010024077
:10082400044A1369002902D00343136170478343C8
:100834001361FBE700100240044A1378002902D038
:1008440003431370704783431370FBE7091002409E
:10085400430907D10A4B1A681F230340DA400120D9
:1008640010407047012B04D0022B05D0044B5A6B67
:10087400F2E7034B1A6AEFE7014B5A6AECE7C0460A
:10088400001002408023034A5B04516A0B43536205
:100894007047C04600100240034B9B6803405A1E39
:1008A4009341D8B27047C04600100240014B187003
:1008B4007047C0460A1002400E4B10B5984203D050
:1008C4000D4B98420BD010BD80200121C001FFF7D1
:1008D4009BFF80200021C001FFF796FFF3E78020F3
:1008E40001218002FFF79CFF802000218002FFF796
:1008F40097FFE8E70038014000440040012230B58A
:100904000D00036889B09343036043681D4A0400E3
:1009140013408A681343436002681B4B1A404B68B8
:10092400C9680B4329690B43134303608368174A5F
:1009340013406A691343836001A8FFF795FE144BC3
:100944009C421DD0039823682D681B0414D52900EC
:10095400400000F0C3FA00236D08A9425B41C018AF
:1009640023681B0404D50B4A03075B0F104018438C
:1009740080B2A08109B030BD290000F0AFFAEAE7E7
:100984000798E0E7FFCFFFFFF3E9FFFFFFFCFFFF5E
:1009940000380140F0FF000096239B010C22036005
:1009A4000023026143608360C36043617047C046B3
:1009B4004268064B10B51A404C680B6823438C6898
:1009C400C96823430B431343436010BDFFF0FFFF8B
:1009D4000023036043608360C3607047012203689F
:1009E400002902D013430360704793430360FBE77D
:1009F4000368002A02D00B43036070478B430360F3
:100A0400FBE7C046002905D0802302681B0213437C
:100A1400036070470368024A13400360F9E7C04665
:100A2400FF7FFFFF002905D0802382681B01134349
:100A3400836070478368024A13408360F9E7C046C5
:100A4400FFF7FFFF002905D0802342681B031343EF
:100A5400436070474368024A13404360F9E7C04665
:100A6400FFFFF7FF002905D080234268DB02134310
:100A7400436070474368024A13404360F9E7C04645
:100A8400FFFFFBFF4368002A02D00B43436070471B
:100A94008B434360FBE7C046002905D080234268AE
:100AA4001B021343436070474368024A1340436088
:100AB400F9E7C046FF7FFFFF002905D08023426885
:100AC4001B041343436070474368024A1340436066
:100AD400F9E7C046FFFF7FFF43691B0E1B06436116
:100AE40043690B4343617047FF22038A93430382A4
:100AF400038A19430182704702220368002902D045
:100B040013430360704793430360FBE78368034A1E
:100B14001340836083680B4383607047FFFFCFFFFC
:100B2400002905D0802342685B0313434360704768
:100B34004368024A13404360F9E7C046FFFFEFFFF2
:100B44004368034A1340436043680B434360704760
:100B5400FFFF9FFFC905C90D01857047808CC00543
:100B6400C00D7047436809061B021B0A43604368B3
:100B7400194341607047C046002905D080230268AC
:100B84009B011343036070470368024A13400360E8
:100B9400F9E7C046FFDFFFFF0368034A1340036021
:100BA40003680B4303607047FFF7FFFF102243689D
:100BB4009343436043680B43436070472022436878
:100BC4009343436043680B4343607047002905D057
:100BD40080234268DB011343436070474368024A41
:100BE40013404360F9E7C046FFBFFFFF0822836854
:100BF400002902D013438360704793438360FBE76B
:100C0400FF23028A090213400382038A0B430382EF
:100C14007047C04620228368002902D013438360B2
:100C2400704793438360FBE710228368002902D056
:100C340013438360704793438360FBE78368044AEC
:100C44004904134083608368194381607047C04638
:100C5400FFFFF1FF436909061B021B0A4361436955
:100C6400194341617047C0460422836893438360FB
:100C740083680B438360704702228368002902D093
:100C840013438360704793438360FBE7002905D0D7
:100C940080238268DB011343836070478368024AC0
:100CA40013408360F9E7C046FFBFFFFF8368034A30
:100CB4001340836083680B4383607047FF7FFFFFAB
:100CC4000368044A4905134003600368194301603B
:100CD4007047C046FFFF1FFC0368044A0904134021
:100CE40003600368194301607047C046FFFFE0FFDB
:100CF4008368002A02D00B43836070478B43836070
:100D0400FBE7C0468368034A1340836083680B4350
:100D140083607047FFDFFFFF10B5FF248BB20C40E8
:100D240001211B0AA140022B0CD0032B08D003681D
:100D3400002A02D00B43036010BD8B430360FBE722
:100D44000830F4E70430F2E7038B89B2002A02D0BA
:100D54000B43038370478B430383FBE78368034A96
:100D64001340836083680B4383607047FFEFFFFF8A
:100D7400C36919400800431E9841C0B27047C04679
:100D84000162704710B5FF2401238AB20C40A340CE
:100D9400120A012A12D0022A0DD082681340C269B5
:100DA4000020002B06D00123090C8B401A40531E4F
:100DB4009A41D0B210BD42681340F0E70268134074
:100DC400EDE7C0460123090C8B4003627047C0461F
:100DD400002243088B4274D303098B425FD3030A76
:100DE4008B4244D3030B8B4228D3030C8B420DD389
:100DF400FF22090212BA030C8B4202D31212090217
:100E040065D0030B8B4219D300E0090AC30B8B4254
:100E140001D3CB03C01A5241830B8B4201D38B0302
:100E2400C01A5241430B8B4201D34B03C01A5241A7
:100E3400030B8B4201D30B03C01A5241C30A8B42EA
:100E440001D3CB02C01A5241830A8B4201D38B02D5
:100E5400C01A5241430A8B4201D34B02C01A524179
:100E6400030A8B4201D30B02C01A5241CDD2C309EB
:100E74008B4201D3CB01C01A524183098B4201D367
:100E84008B01C01A524143098B4201D34B01C01A52
:100E9400524103098B4201D30B01C01A5241C308CA
:100EA4008B4201D3CB00C01A524183088B4201D339
:100EB4008B00C01A524143088B4201D34B00C01A25
:100EC4005241411A00D20146524110467047FFE791
:100ED40001B5002000F0F0F802BDC0460029F7D0AB
:100EE40076E7704703460B437FD4002243088B42C6
:100EF40074D303098B425FD3030A8B4244D3030B9D
:100F04008B4228D3030C8B420DD3FF22090212BA61
:100F1400030C8B4202D31212090265D0030B8B42DD
:100F240019D300E0090AC30B8B4201D3CB03C01AC7
:100F34005241830B8B4201D38B03C01A5241430BA2
:100F44008B4201D34B03C01A5241030B8B4201D392
:100F54000B03C01A5241C30A8B4201D3CB02C01AFD
:100F64005241830A8B4201D38B02C01A5241430A75
:100F74008B4201D34B02C01A5241030A8B4201D364
:100F84000B02C01A5241CDD2C3098B4201D3CB010B
:100F9400C01A524183098B4201D38B01C01A5241BA
:100FA40043098B4201D34B01C01A524103098B42BE
:100FB40001D30B01C01A5241C3088B4201D3CB00A9
:100FC400C01A524183088B4201D38B00C01A52418C
:100FD40043088B4201D34B00C01A5241411A00D23C
:100FE40001465241104670475DE0CA0F00D04942A5
:100FF400031000D34042534000229C4603098B4215
:101004002DD3030A8B4212D3FC22890112BA030A9C
:101014008B420CD3890192118B4208D3890192111E
:101024008B4204D389013AD0921100E08909C309A3
:101034008B4201D3CB01C01A524183098B4201D3A5
:101044008B01C01A524143098B4201D34B01C01A90
:10105400524103098B4201D30B01C01A5241C30808
:101064008B4201D3CB00C01A524183088B4201D377
:101074008B00C01A5241D9D243088B4201D34B0092
:10108400C01A5241411A00D20146634652415B10D4
:10109400104601D34042002B00D5494270476346B5
:1010A4005B1000D3404201B5002000F005F802BDFA
:1010B4000029F8D016E770477047C04684461000F0
:1010C40062468C461900634600E0C0461FB500F036
:1010D4009FFF002801D40021C8421FBD10B500F0B5
:1010E400E3FE4042013010BD10B500F091FF00282E
:1010F40001DB002010BD012010BDC04610B500F07A
:1011040087FF002801DD002010BD012010BDC0466E
:1011140010B500F00DFF002801DC002010BD0120F7
:1011240010BDC04610B500F003FF002801DA00200E
:1011340010BD012010BDC04670B500220C4B040048
:101144000D00FFF7EFFF002804D12000290001F073
:1011540021FE70BD064B00222000290001F092FA06
:1011640001F018FE80231B069C466044F1E7C0464C
:101174000000E041F0B557464E46DE464546E0B530
:101184000C0383B04E00640A470FCD0F5900009240
:10119400019327431C034B0D9A46009A019B640A52
:1011A400D90F530F23439B46009B760DDA009446D8
:1011B4005246B21A9146C0008D4200D1C1E0002AC5
:1011C40000DC86E05246002A00D105E1BF4A96427F
:1011D40000D1ADE14A460124382A19DC80225B465D
:1011E400120413439B464A461F2A00DD0BE24B467A
:1011F40020225C466146D21A9440D9400C43614691
:1012040091400A00511E8A4114435A46DA40BF1ADB
:10121400041BA042804140423B1A984643461B02AD
:1012240000D44DE143465B025B0A98464346002BDB
:1012340000D127E1404601F03BFE0300083B202299
:1012440027004146D01A9940C7409C400F439E4214
:1012540000DDD3E1991B23000131521ACB409440A5
:101264009846631E9C413B0093404246CF40224334
:101274001400B84600261C43630709D00F232340FB
:10128400042B05D0231DA342A4416442A0441C00A6
:1012940043461B0200D4CAE28C4A0136964200D16E
:1012A400ECE043468A480340180073055B0DE408EC
:1012B400420722434402240B1B052343ED072B431F
:1012C4001000190003B0F0BCBB46B246A946A046C4
:1012D400F0BD002A00D194E05246921B9146002EA4
:1012E40000D07EE13A00024300D1D7E14B465A1EBA
:1012F400012B00D152E2754CA14500D115E2012425
:10130400382A13DC91464B461F2B00DD16E22022BF
:101314000500D21A3C00DD40DF4090405B4694401B
:10132400DB1B421E90419B462C4304436246141B24
:10133400A44592415B4652429B1A98460D0056467C
:101344006CE7002A00DCC7E05246002A00D088E09F
:1013540062465B461A4300D1FAE04B465A1E012B03
:1013640000D1AFE15949894500D1E1E00124382A8F
:1013740017DC91464B461F2B00DDBFE12022D21A19
:101384005B46934061461C004B46D94063469340FC
:101394001A000C43511E8A414B4614435A46DA4004
:1013A400BF1824188442804140428046B8444346D2
:1013B4001B0200D484E0454B01369E425ED0424677
:1013C400434B01211A401300214062080A43DC0701
:1013D4005B08984614434FE762465B461A4300D1C4
:1013E400B6E04A464946013A012900D17BE1374932
:1013F400894500D19CE00124382A00DD08E79146A4
:10140400F1E6344C721C224200D0D3E03C00624628
:101414005B4604431A43002E00D044E1002C00D163
:10142400CAE1002A00D17DE16346C61AB042924166
:101434005B465242FC1AA41A80221204144200D1C0
:1014440012E263461C1A5B46D81BA4459B415B42CF
:10145400C01A104200D11DE21D4B0D00184001239B
:1014640025E71A4A964263D04A460124382A98DC72
:1014740080225B46120413439B467BE7330000241F
:10148400002219E7200001F013FD030018331F2B7D
:1014940000DCD4E60838844027009E4200DDC4E026
:1014A4009B1B591C1F2900DCCCE11F3BDC4020297D
:1014B40005D040235B1A9F407B1E9F413C4300267E
:1014C400630700D0DAE6B1460AE1C046FF07000030
:1014D400FFFF7FFFFE070000002A46D05246921B02
:1014E4009146002E00D1A9E0D34A924500D121E1D2
:1014F4004B460124382B13DC8022120417434B463D
:101504001F2B00DD84E120223C00D21A0100904010
:101514009440D940421E9041DF400C430443BB44F5
:10152400644464459241524290465646D8443EE74C
:10153400C0087A070243FF083B001343002B00D185
:10154400A4E1802424033C432403BB4B240BB3E6D3
:10155400C008B94B7A070243FF089945ECD04B46C3
:101564003C035B05240B5B0DA6E6B44A711C1142D7
:1015740076D13A000243002E00D0EEE0002A00D1DA
:1015840041E162465B461A4300D1CBE06346C21890
:10159400824280413B0040425B441C18D308220233
:1015A40000D46DE1A64A1440620764021A43240B76
:1015B400012381E66246841AA04292415B4652426C
:1015C4009146FB1A1A004B46D21A130090461A028F
:1015D40059D44246224300D028E6002500230024A3
:1015E4006AE6954A924500D19FE04B460124382B88
:1015F40000DD9BE680221204174384E6F61A904B22
:101604001F40B84638E659464B46203AD140202B75
:1016140006D04022D21A5B46934062461A4394464F
:101624006446631E9C410C43F2E5F31A9946844BCD
:101634001F4043467A071A43FF0890E73A000243E3
:1016440000D1C6E04B465A1E012B00D102E17A4973
:1016540089456FD00124382A00DD61E791464EE7C1
:10166400754A914200D1F1E06346C218824280413A
:101674003B0040425B441B18DC0752085B08984659
:101684000E001443F8E563461C1AA44592415B46D8
:101694005242DB1B9B1A98460D00C7E563460D00BA
:1016A4005F46D80855E7002C00D096E0002A00D108
:1016B400E2E06246DF08D2085B071A433B000D00F4
:1016C40013433BE76346C4183B00844280415B44B8
:1016D40098464042804443461B026BD401239946FA
:1016E4004746E00835E76346C41AA04280415B469A
:1016F4004042FB1A1B1A984601268FE54A465B4670
:10170400203AD34019004B46202B06D04022D21A4F
:101714005B46934062461A4394466446631E9C416A
:101724000C433EE6C308984683E763460D005F46D4
:10173400D808FEE663465F46D808FAE64A463D0006
:10174400203AD540202B03D04022D21A9740384368
:10175400421E904104002C43E8E5002AEAD0624688
:101764005B461A4300D1E3E68022FE08C0087F07E7
:1017740012033843164208D0D908114205D16346F2
:10178400D8085B460E005B0718433300420FC000C5
:101794005207C008024337001343CFE663461C1ABE
:1017A400A44592415B465242DB1B9B1A98460D00AE
:1017B400012633E5022602E6002A00D10DE763463E
:1017C400D8085B465A075B021C0B0D00002302433A
:1017D40072E563465F46D808BBE6002A00D1A7E657
:1017E4008022FE08C0087F07120338431642CCD07B
:1017F400DC081442C9D16346D8085B465B070D0078
:1018040026001843C1E76346DB0898465F4610E7A5
:101814004A463900203AD140202B03D04022D21A24
:1018240097403843421E904104000C4378E6B14689
:101834004746E0088DE6C046FF070000FE070000AB
:10184400FFFF7FFF20220024521A0CE50B00002426
:10185400002231E53B006044604592415B44984678
:1018640052420400904436E73200224300D1B4E6E9
:10187400F30898462700DCE6802700253F0360E64E
:10188400620764021A43240B002315E50022002496
:10189400034B11E54207E4080D002243C7085EE646
:1018A400FF070000F0B5DE46454657464E46E0B514
:1018B40087B0009201930B031B0B9B46CA0F4B008E
:1018C400040080465B0D029200D189E08A4A93426B
:1018D40038D05946420FC9000A43802109041143F4
:1018E400C2009046854A894692469A4400230024C1
:1018F4000393009E019F3B031B0B9B467B00300020
:101904005B0DFD0F002B00D19EE07B4A934200D17A
:101914008CE05946720FC9000A438021090411431F
:101924008B467649F2008C4651466344CB1A9A465C
:101934000021029E6E400F2C00D9EFE0704BA400F2
:101944001B599F465A460243914600D09DE09A4651
:101954000223904608240393CBE72E0000220024A0
:101964009046654B1B052343F60733434046190055
:1019740007B0F0BCBB46B246A946A046F0BD002263
:10198400002300249046EDE7CB464246029D03998E
:101994000229E2D0032900D143E22E000129EED02E
:1019A400584B5344002B00DC93E1510700D04AE22A
:1019B4005946C90106D55946534B194080238B46D5
:1019C400DB00534451498B42C8DC5946D2084907CD
:1019D40011435A465B0554028846240B5B0DC1E74C
:1019E4005B460343994661D05B46002B00D1C2E1BC
:1019F400584601F05DFA0B235B429C460200844486
:101A040066461D239B1B260011005846DE400839FC
:101A1400884033000343994623008B4098463C4B4F
:101A240000249B1A9A460023039362E75A46009BBC
:101A34001A43384B9C46E244002A32D102231C4309
:101A4400002302219B4674E75A46009B1A4322D086
:101A54005B46002B00D1A0E1584601F029FA0200B0
:101A640003000B3A1D27009EBA1A19005846D640A7
:101A740008398840320002439346009A8A40264936
:101A840053448A4600219A4453E79A460323D9468D
:101A94000C2403932DE701231C43002301219B46BF
:101AA40047E70323320003211C4342E700239846FF
:101AB4009A460133042403931BE7002380249846A9
:101AC40000260D4B24034DE780244B462403234278
:101AD40009D05B46234206D11C4324032E009046C2
:101AE400054B240B3EE780244B4624031C4324036C
:101AF400029E014B240B35E7FF07000001FCFFFFAA
:101B0400683F0008FF030000FFFFFFFEFE07000020
:101B14000DFCFFFF01F8FFFFF3030000CB4500D2EB
:101B240020E100D11BE101235B429C464446484628
:101B34000027E2445B46150E1B021D43190C2B04BF
:101B4400120200951D0C914602910395FFF7C6F908
:101B540002006A430B04210C804619438A420ED9C1
:101B6400009D0123AC465B4261449C46E0448D42A7
:101B740005D88A4203D9AC46831E98466144881A24
:101B84000299FFF7ABF9039A240442430904240C95
:101B940003000C43A24206D90099013B8C466444DD
:101BA400A14200D80DE1A01A424612041A439346FA
:101BB4004B4659461B0C1D0004930B04494609046B
:101BC400090C0C001B0C5C43120C6B4388465143FC
:101BD4006A43250CAC465B186344994203D98021BF
:101BE40049028C466244190C24041B04240C8A18F0
:101BF4001C19904200D29EE000D199E03C1BA74200
:101C0400BF41009D801A7F42C01B854200D10CE178
:101C14000299FFF763F9039A0B044243210C07006E
:101C240019438A4208D9AC466144013F8D4203D826
:101C34008A4201D9871E6144881A0299FFF74EF936
:101C4400039A240442430904240C03000C43A242D3
:101C540009D90099013B8C466444A14203D8A242AD
:101C640001D9831E64444146A41A3A041A43049DCC
:101C740013041B0C594347466B439C46100C4743C3
:101C84000B0CBC44634468439F4203D980256D0216
:101C9400AC4660441F0C09041B04090C3F185B1874
:101CA400BC4206D302D001231A4379E6002B00D1AB
:101CB40076E60098511E84466444844200D2A8E02B
:101CC400BC4200D2D6E000D1E0E00A00EBE70122FA
:101CD40052420121C91A382900DD50E61F2976DD58
:101CE4001F204042C31A5846D8400300202904D07C
:101CF40058466949514488400243511E8A411A4357
:101D0400072319000024114013420CD00F23134061
:101D1400042B00D1BEE0111D91429B410A005B429D
:101D240059075B021C0BD2080A439046002319E6AC
:101D3400A74200D362E75B46009D013B4F440593F5
:101D44004F459B41AC465B426344C018854233D245
:101D5400824200D981E07DD0059B9B464EE74245F7
:101D640000D9E0E64B46DC07580843465B081C43B1
:101D74004346DF07DEE601F09BF815239C468444C6
:101D84000200634620321C2B00DC39E623000838AD
:101D9400834099460023984641E601F089F8020001
:101DA4000300153220331C2A00DC5BE60099083856
:101DB400814000228B4662E68542CDD1B945CBD81D
:101DC400C6E7A24200D8EEE6831E6444EBE633483D
:101DD4001400504482405B4617008340CC407A1E76
:101DE400974123433B431A005B46CB40510709D03C
:101DF4000F211140042905D0111D914292415242F4
:101E04009B180A0019028BD5002201230024904656
:101E1400A8E50A00BC4200D045E74B4500D042E7A4
:101E2400BEE580245B46240356E61D4B1D4A5344FD
:101E3400924500DA4BE7012149420A1D8A42894151
:101E440049428B44B4E50F211140042900D1AFE588
:101E54001100F2E7BC4200D87EE702235B429C46B5
:101E640000994F444F459B41E3448C465B42634495
:101E7400C018C3E64946009D480048458941AC4620
:101E8400494261448146023A6418C3E79945F1D353
:101E94000A00C2E7002343E73E0400001E040000DA
:101EA400FF03000002FCFFFFF0B55746DE464E4636
:101EB4004546E0B50D000400E80F83460903D80F3A
:101EC400090B824619488C461F0369005E00490DC0
:101ED4003F0B760D814218D086420FD00120B142CB
:101EE4000DD1BC450BD1944209D1D3451CD0002956
:101EF40005D160462043431E984100E00120F0BC18
:101F0400BB46B246A946A046F0BD01208E42F6D19A
:101F1400614639430F0017432743F0D15B465246CD
:101F2400981A431E9841EAE70020E8E7FF070000FB
:101F3400F0B557464E464546DE46E0B50D000E0365
:101F44004900490D8A46DF0FE90FBC4683B02F4F85
:101F5400040080460191580019039146360B090B81
:101F6400400DBA451DD0B8420DD05746002F2AD196
:101F74003443002824D10A4336D0002C41D163468F
:101F84005800013815E0114338D15346002B01D1D4
:101F94002643F4D0019B634507D1019B58000138C7
:101FA40007E026432AD1504521D00120019B5F42FE
:101FB400384303B0F0BCBB46B246A946A046F0BDC8
:101FC400002CDCD0E6E70028EFD0019B6345ECD180
:101FD4008245EADCE1DB8E42E7D8DED1C845E4D8AD
:101FE4000020C845E5D2D8E7002CE2D0DDE7114354
:101FF40004D1019B6345D8D10020DAE70220404296
:10200400D7E7019B6345E6D0CFE7C046FF07000052
:10201400F0B557464E464546DE46E0B50D000E0384
:102024004900490D8A46DF0FE90FBC4683B02E4FA5
:10203400040080460191580019039146360B090BA0
:10204400400DBA451ED0B8420DD05746002F27D1B7
:102054003443002833D10A4334D0002C40D16346A2
:102064005800013815E0114312D15346002B01D119
:102074002643F4D0019B63451DD00120019B5F42A0
:10208400384306E0264303D15045F6D111431CD012
:10209400022003B0F0BCBB46B246A946A046F0BD40
:1020A4000028EAD0019B6345E7D18245E5DC02DBE9
:1020B4008E42E2D80ED0019B58000138E9E7002C8B
:1020C400CDD0D7E7002CE4D0D7E7019B00206345AF
:1020D400DFD0D2E7C845D0D80020C845D9D2EAE736
:1020E400019B6345E4D0C8E7FF070000F0B55746FD
:1020F4004E46DE464546E0B589B0009201930B0397
:102104001B0B9A46CA0F4B00040091465B0D00D18D
:10211400BCE1D84A934200D14AE15146420FC9007A
:102124000A43802109041143C2009046D24A8A46D8
:102134009C18002300250393009E019F3B031B0B67
:102144009B46FA0F7B0030005B0D049200D16FE1D7
:10215400C84A934200D153E15946720FC9000A4359
:10216400802109041143C44A8B46944600216344E8
:10217400F0001B195C1C0A2D00DD26E14E46049A72
:102184005640F2B20092022D00DCA8E10122AA40DE
:10219400A6271500FF003A403D4200D013E19027E6
:1021A400BF003D4200D016E288222A4200D0EFE16F
:1021B400414642460904090C0D00170C020C0004A8
:1021C400000C4543AC46050016007D43A8460D00AF
:1021D4007E43039204963200039E75436646360C92
:1021E400B14645444D44A84505D916008022520203
:1021F4009046464404962E0C059666463604360CE4
:10220400B4462D04654406955D462D0CA9465D46ED
:102214000E002D042D0C6E43B4462E007E43B346AF
:102224004E467143594488466146090C41447743FC
:102234008B4503D980225202904647440E0CB04687
:102244003E004644079666463704059E3F0CB44656
:102254000904C9198C44664605965646360CB4469C
:10226400564637043F0C3E004643B0466646464356
:10227400B24646466046360CB346039A50437A4308
:1022840052445A44924503D980267602B2465044B9
:10229400160CB24682444046120490460004000CD8
:1022A4003A004E46804460466A4377434543704350
:1022B40084467819170C3F18BD4203D98020400288
:1022C4008146CC44059D0498A946079E484488420B
:1022D4008941B14612043D04120CAA184A444942E9
:1022E40055184044A9464045AD41C8466D42AB46E9
:1022F400B242924189458941D044C3444942524241
:102304000A43AB45AD41D04589416D4249420D4335
:1023140059463F0CD219521962445202C90D069D06
:1023240011438A46410229434D1EA941C00D084369
:102334005946490208438046D20100D473E1012280
:102344004308024013435246D20713439846534668
:102354005B089A46009B9946484BE318002B00DC27
:10236400E5E0424652070AD00F2241460A40042AB9
:1023740005D0043141459241884652429244524626
:10238400D20106D552463E4B1A4080239246DB00CA
:10239400E3183C4A934200DD9DE04246D108524690
:1023A40052070A4351465B054C02240B5B0D19E0AE
:1023B40052460243904600D0B3E01C0002239246EA
:1023C40008250393B8E6009B9946039B022B00D192
:1023D40081E0032B00D1F5E0039B012BBCD100234A
:1023E4000024002210004A461B052343D20713434E
:1023F400190009B0F0BCBB46B246A946A046F0BDE0
:102404005B46009E1E431B4BE318002E00D181E067
:1024140003224E461543049A5640F2B2009280229B
:102424001201944664440A2D00DDB7E00321ADE6B1
:102434005B46009A134365D05B46002B00D1E2E073
:10244400584600F035FD020003000B3A1D27009E9C
:10245400BA1A19005846D640083988403200024357
:10246400009893468840084AE31A9446002163443E
:1024740080E6C046FF07000001FCFFFFFF030000E9
:10248400FFFFFFFEFE0700000DFCFFFF5346034362
:10249400984630D05346002B00D1A2E0504600F0BD
:1024A40007FD0B235B429C460200844466461D23C1
:1024B4009B1B260011005046DE400839884033003B
:1024C40003439A4623008B4098460023694C002519
:1024D400A41A039330E600240022674B82E7013DEF
:1024E400012D00D964E6009B99460229F3D0DA460F
:1024F4008046039170E700239A46013304250024A3
:10250400039319E6002201331D4393462300002060
:1025140001212FE6022215430022002093460221C6
:1025240028E61C00032380460C25039304E60121BE
:10253400C91A382900DD52E71F2978DD1F225242CB
:10254400D31A5246DA401300202907D04B4A414699
:10255400944652466444A240114388464246511E62
:102564008A411A43072319000024114013420BD057
:102574000F231340042B7BD0131D9342A4411A0054
:10258400644261076402240BD20800230A4329E74A
:10259400049BDA4699468046039116E70F2D0DD128
:1025A40080245346240323420CD05B46234209D1A2
:1025B4001C43049B020099462F4B13E7049BDA4605
:1025C400994680468024534624031C4324034246F0
:1025D400294B240B06E70023802499462403264B29
:1025E40000E700F065FC15239C4684440200634622
:1025F40020321C2B00DC59E70023984623000838BE
:1026040083409A4661E700F053FC02000300153250
:1026140020331C2A00DC19E702000099083A914093
:1026240000208B461FE7009A1C00914694E6144B49
:1026340052469C4643466444A240CB401A43434618
:10264400A340581E834154461A43CC40530709D033
:102654000F231340042B05D0131D93429241524281
:10266400A4181A0023028CD5012300240022B9E601
:10267400002486E70DFCFFFFFF0700003E04000076
:102684001E040000F0B557464E464546DE46E0B50A
:1026940083B0009001910E034D00CC0F710A009E8F
:1026A4005F00760F0E43009900920193C80019034E
:1026B4007B0D9A46B446009E019FFB0F9946CA4A79
:1026C4004B0A710F1943F300834698461F006D0DA2
:1026D400924500D1C4E001234E465E405346B146C4
:1026E400EB1AB44200D17AE0002B00DC24E3564616
:1026F400002E00D1D4E0954200D164E10126382BAC
:1027040016DC8022120411431F2B00DDD6E12022A7
:102714000E004746D21ADF4096403E434746974054
:10272400D9403A006346571EBA415B1A9C46164389
:10273400861BB0428041634640421F1A3B0200D4CC
:1027440038E17F027F0A002F00D114E1380000F045
:10275400AFFB0300083B20213000CA1AD0409F4041
:1027640002009E403A439D4200DD7AE1581B01304D
:10277400091A37008E40C740731E9E411300C240A1
:102784008B403E43002517001E43730709D00F23D7
:102794003340042B05D0331DB342B6417642BF19F2
:1027A4001E003B0200D49AE28F4A6B1C934200D174
:1027B40006E18E4D5B053D405B0D6A07F6086D0230
:1027C40032432D0B1B052B43E40723431000190050
:1027D40003B0F0BCBB46B246A946A046F0BD002BF0
:1027E40000DCC4E25646002E00D0BAE046460E4352
:1027F40000D1EAE05E1EB146012B00D1AAE193426A
:1028040000D1E0E04B460126382B11DC1F2B00DD04
:10281400B5E120220E004746D21A9640DF403E43DF
:10282400474697403A00D940571EBA418C44164354
:102834003618864280414042604407003B0200D47F
:10284400B8E0694B01359D4200D1B8E00121674BE6
:1028540072081F4031400A43FE0716437F0894E77D
:10286400634BEA1843460B432CD04C4530D0002A26
:102874005DD0002D00D1F8E043464C468C46D80884
:1028840063465A070243D9080B001343002B00D1B7
:1028940047E280252D030D432D03534B2D0B91E768
:1028A40046460E4300D190E05E1EB146012B00D196
:1028B4005CE1934200D186E04B460126382B00DDD3
:1028C40036E721E74E4601235E40B1464C45CED162
:1028D400002A00D190E0002D00D004E15346624666
:1028E400024300D1C8E15A1E012B00D1FFE13E4D45
:1028F400AB4200D1F7E00123382A10DC1F2A00DDA7
:10290400DCE120250600AD1A6346A840AB40D64062
:10291400451EA841334303436046D040091843444D
:102924004345924152421E005546571886E7314AA4
:102934006B1C134200D082E0424663460A430343C1
:10294400002D00D0F5E0002B00D16AE1002A00D070
:1029540075E10023C7086246614652073A43C90835
:102964003DE095422FD00126382B00DD60E7802220
:10297400120411434AE7300000F09AFA03001833B6
:102984001F2B00DCE7E63200083882409D4200DD60
:10299400A4E05B1B581C1F2800DCA4E116001F3BAD
:1029A400DE40202805D040231B1A9A40531E9A412A
:1029B40016430025730700D0E9E62B00D3E02B0073
:1029C40000250022FEE6C0085AE7C00862466146B8
:1029D400520702430448C908834200D154E709035B
:1029E4005B050D0B5B0DEDE6FF070000FFFF7FFFAE
:1029F40001F8FFFFFE070000CC4A6B1C134276D19E
:102A040063460343002D00D0DDE0002B00D150E1EC
:102A14004346C7080B439ED04346C31883428041B4
:102A2400614440420D18DB082A0200D473E1C04A15
:102A340015406A076D021A432D0B0123C2E6434673
:102A4400C61A63465F1AB0429B415B42FF1A3B02BF
:102A54005ED432003A4300D075E6002400230025FA
:102A6400B0E6B34FED1A17408FE653466246024371
:102A74005AD05A1E012B00D1C8E0AE4CA34200D15B
:102A8400FAE64C460126382A10DC1F2A00DD89E0CC
:102A940020239B1A0500664698409E40431E984199
:102AA4006346D540D3402E430643C91A43469E1B72
:102AB400B0459241524255468F1A3FE61A000E0025
:102AC400203AD640202B05D04022D31A99404346C1
:102AD4000B431F007B1E9F413E4329E69449EB1A9A
:102AE4000A40944637E743468C46D808C8E6914ADC
:102AF400934200D164E74246821882428041614495
:102B040040420918CE0752081D0016434F083CE600
:102B140043461E1A6346B0459241C91A01244B46E6
:102B240052428F1A1C400EE642464C468C46D00850
:102B34004CE7002B00D0A3E0002A00D1E7E0434695
:102B44004A07DB081A43130001244846C9080B430B
:102B540004409BE6C61986428041614440420F18F6
:102B64003B0251D40123BC46F0082FE7C61B634641
:102B7400B0428041591A404201250F1ADEE51A007D
:102B84000E00203AD640B146202B05D04022D31A5D
:102B9400994043460B431F003E00731E9E414B4623
:102BA4001E4345E613006546203BDD40202A05D040
:102BB400402366469B1A9E400643B3465E46731EF8
:102BC4009E412E4372E7002B8DD043460B4300D128
:102BD400F9E66246C0085207634610438022DB08C8
:102BE4001203134207D0CD08154204D14346D80836
:102BF4002B0049070843420FC0005207C008024394
:102C0400190013000B4341E602251FE643461E1A32
:102C1400B045924163465242C91A4C4601258F1A67
:102C24008CE5002A00D118E743464A07DB08012453
:102C34001A434B4649021C400D0B0023C2E5434690
:102C4400C71A63465D1AB8429B415B42ED1A802362
:102C54001B041D4253D04246161A62468D1AB045D3
:102C6400924152420124AD1A4A4614401D4278D082
:102C74002F4B1D400123A0E542468C46D008A5E613
:102C8400002A00D19FE66246C008520763461043FB
:102C94008022DB0812031342ADD0CD081542AAD11D
:102CA40043460124D8084B4649071C4008432B00DF
:102CB400A1E743468C46DF0800234CE61300654633
:102CC400203BDD40202A05D0402366469B1A9E40C7
:102CD4000643B3465B465A1E93412B431FE62B0023
:102CE400BC46F00872E620210026091A46E5404455
:102CF400404592416144524206008F1830E73A0041
:102D04002A4300D1A9E60023AC46FF0823E680212C
:102D140000240903BDE56A076D021A432D0B002345
:102D240050E500220025034B4CE5C046FE07000099
:102D3400FFFF7FFFFF070000002B00D1F7E553469C
:102D44005A1B1300002D00D190E6382A06DC80239C
:102D540064461B041C43A446340096E63400012652
:102D6400A4E66A07F60800233243E90837E6002B95
:102D740000D141E653465A1B002D01D11300AEE5A4
:102D84000123382A00DDCAE5802365461B041D4360
:102D9400AC46B3E50B00020070B5164D0C0382B0CF
:102DA4004900002000920193240B490DDE0FA94233
:102DB40004DD1148814203DD104BF01802B070BDF0
:102DC4008020400320430E4C641A1F2C08DD0D4B59
:102DD4005B1AD84003005842002EEFD11800EDE7EB
:102DE400094B009A9C46030061448B40E240134324
:102DF400F1E7C046FE0300001D040000FFFFFF7F53
:102E04003304000013040000EDFBFFFF70B500283D
:102E140016D0C317C5185D40C40F280000F048F849
:102E2400104B1B1A5B055B0D0A2814DC02002E00F4
:102E3400153296400B22121AD5402D032D0B03E0B8
:102E440000240023002500261B052B43E40723430D
:102E54003000190070BD0B3885402D0300262D0B62
:102E6400F2E7C0461E04000010B5041E10D000F0A6
:102E74001FF80E4B1B1A5B055B0D0A280FDC0B2297
:102E84002100121AD14015300A038440120B01E0CC
:102E9400002300221B0513432000190010BD22004B
:102EA4000B38824012030024120BF3E71E040000C7
:102EB4001C2101231B04984201D3000C10391B0A66
:102EC400984201D3000A08391B09984201D300092A
:102ED400043902A2105C40187047C0460403020281
:102EE400010101010000000000000000F0B5050030
:102EF400830749D0541E002A45D003000326CAB2D2
:102F040002E00135013C3ED301332A703342F8D14B
:102F1400032C30D9FF220A401502AD182A04AD183B
:102F24000F2C34D92700103F3F093E01B4461E0040
:102F34001A0010366644156055609560D5601032ED
:102F44009642F8D101373F01DB190F270C222740A5
:102F540022403C00002A0ED03E1FB608B400A4460E
:102F64001A001C1D644420C2A242FCD10324013671
:102F7400B6009B193C40002C05D0C9B21C1919702D
:102F840001339C42FBD1F0BD03001400C0E72700CD
:102F9400E2E7C046F0B505000F2A31D903273E0009
:102FA4000D430C0003002E402F4234D11500103D78
:102FB4002D09AC462F013F1865685D60A5689D60CA
:102FC400E568DD60256810341D601D001033BD42C6
:102FD400F2D165460F230C2401352D014919134004
:102FE400451914421AD0043B9B0801339B008C59A9
:102FF400AC5104369E42FAD10323AD1989191A4003
:10300400561E002A06D00023CC5C1A00EC5401336F
:103014009642F9D1F0BD0500561EF4E71A00EFE719
:1030240070B50D4B0D4D5E1BB610AB4205D00024A0
:1030340008CD01349847A642FAD800F0B9FF084BEE
:10304400084D5E1BB610AB4205D0002408CD0134F8
:103054009847A642FAD870BD0000000000000000A6
:10306400000000000000000010B50C4C2000FDF72B
:10307400FBFAFA2160688900FDF7AAFEC021084A1C
:103084000138506007480906036A1B021B0A0B43F8
:103094000362002393600733136010BD18000020FF
:1030A40010E000E000ED00E082B00190019A034BD3
:1030B4001A601A68002AFCD102B070473800002058
:1030C400034B1A68002A02D01A68013A1A60704742
:1030D4003800002010B5914200DB10BD435C845CD5
:1030E400445483540131013AF5E7F8B5931E0600C0
:1030F4000C0015001E2B18D80027C317C018584001
:10310400002814D13A1E02D1302301322370002E3C
:1031140004DA0A2D02D12D23A35401320021200008
:10312400A154013AFFF7D6FF04002000F8BD29009E
:10313400FDF7BEFFCAB213003033DBB2092901DD4B
:103144003732D3B2E3550137DAE7000010B5040093
:103154002378002B06D180210848FDF709FE0028BA
:10316400F9D010BD80210548FDF702FE0028F9D0F2
:1031740021780248FDF7EEFC0134E9E70044004001
:1031840010B5FFF7E3FF0248FFF7E0FF10BDC046AC
:10319400A83F000810B588B0FFF766FF00F082FC76
:1031A400012000F0A3FC00F059FC124800F0CEFC12
:1031B4001148FFF7E5FF0120FFF776FFFA2400220C
:1031C4000E4BA4001A70002000F074F800F0F4FB19
:1031D40004A800F027FC049B01220193059B0C2109
:1031E4000293069B01A8039300F036FE2000FFF72C
:1031F4005BFFE8E710270000AB3F00083400002025
:1032040013B501200F24244B24491A6802431A6081
:103214005A680A405A601A6821490A401A601A68B2
:1032240020490A401A605A681F490A405A60DA6AFB
:10323400A243DA621A6B1D4C22401A635A6B824312
:103244005A6300229A6000920192194A1030106069
:103254005A685A605A685A605A680A405A60A022EA
:10326400596892030A435A608022196852040A4337
:103274001A608022920419681142FCD003215A6812
:103284008A435A60022259680A430C215A605A68D8
:103294000A40082AFBD113BD001002400CB8FFF805
:1032A400FFFFF6FEFFFFFBFFFFFFC0FFACFEFFFFCB
:1032B40000200240034B8000C2582023918A4B40D7
:1032C4009382704704000020802110B5034B8000D6
:1032D400C0588901FDF72AF810BDC046000000203F
:1032E4007047FEE77047704710B5FFF7E9FE10BD61
:1032F400802010B58001FCF745FF01280ED1002085
:10330400FFF7E2FF002809D0074A1378012B06D102
:103314000023802080011370FCF742FF10BD137856
:103324000133DBB2F5E7C0463400002070B51C1E43
:1033340016D0DD68002D13D01B69002B10D06369F3
:10334400002B0DD000290BD06378012B01D08023F2
:1033540018436368A8472072002803D0022000E0C5
:103364000120404270BD0000F0B58DB0089002917C
:1033740001920093002900D180E2002A00D17DE26D
:10338400009B002B00D179E20023002201998A607E
:10339400CB600A604B600A614B6103005B0700D19C
:1033A40069E2029B5868FFF75FFD009B06001888DE
:1033B4000F00FFF759FD002204900591F74B3000F0
:1033C4003900FEF793FE002204000D0004980599CD
:1033D400F34BFEF78BFE02000B0020002900FFF7E1
:1033E40051F9002206900791EE4B30003900FEF7A8
:1033F4007DFE002204000D0004980599EA4BFEF7B7
:1034040075FE02000B0020002900FFF73BF90200C3
:103414000B00FEF76BFE009B06000220185E0F00F7
:10342400FFF7F4FC069A079BFEF760FE009B04007E
:103434000420185E0D00FFF7E9FC32003B00FEF7A4
:1034440055FE02000B0020002900FDF793FE040046
:103454000D00FFF79FFC009B002258622900D34B0C
:1034640004902000FEF71EFA0022D14B04000D0048
:10347400FDF73AFE002800D0ECE1002220002900EC
:10348400CC4BFDF745FE002800D0E6E1019B9C6093
:10349400DD60089BDB0700D408E10498FFF7B6FC65
:1034A4000022C54BFEF722FE0022C44BFFF7EAF8C8
:1034B40006000F00009B10229B5E0993009B0E22C6
:1034C4009B5E0A93009B0C229B5E0B93009B0A203D
:1034D400185EFFF79BFC32003B00FEF707FE32004C
:1034E4003B00FEF703FEFB2300229B05FEF7FEFDD7
:1034F400009B04000820185E0D00FFF787FC3200D3
:103504003B00FEF7F3FD02000B0020002900FDF74D
:1035140031FEFB2300229B05FEF7E8FDFC2300227D
:103524009B05FEF7E3FD0022A54BFDF723FE0400F7
:103534000D00009BD888FFF797FC22002B00FEF7B4
:10354400D5FD0022002306900791FDF7E1FD002838
:1035540000D185E132003B0030003900FEF7C6FDA2
:10356400040009980D00FFF751FC02000B00200035
:103574002900FEF7BBFDFC2300229B05FEF7B6FDE8
:1035840004000A980D00FFF741FC32003B00FEF7EF
:10359400ADFD02000B00FDF7EDFD22002B00FDF751
:1035A400E9FD0022874BFEF7A1FD029B0400186889
:1035B4000D00FFF759FC02000B0000208249FFF7C1
:1035C40061F806000B980F00FFF720FC00227F4BE8
:1035D400FEF78CFD22002B00FDF7CCFD00227C4B76
:1035E400FEF784FD02000B0030003900FFF74AF8B3
:1035F4000022784BFEF77AFD069A079BFEF752F9F4
:1036040006000F00009B1620185EFFF7FFFB320038
:103614003B00FEF76BFD32003B00FEF767FDF8232D
:1036240000229B05FEF762FD009B04001420185E37
:103634000D00FFF7EBFB32003B00FEF757FDFC23C8
:1036440000229B05FEF752FD02000B00200029001A
:10365400FDF790FD009B04001220185E0D00FFF79B
:10366400D5FB02000B0020002900FDF783FD00229A
:10367400594BFEF73BFD02000B0030003900FDF70B
:1036840079FD0022554B04000D00FDF72DFD0028A7
:1036940000D0E5E0002220002900514BFDF738FD61
:1036A400002800D0DFE0019B1C605D60089B5B0785
:1036B40000D4E0E00498FFF7A9FB0022494BFEF791
:1036C400E1FF06000F00009B187FFFF7CDFB0022EF
:1036D400454BFEF70BFD32003B00FEF707FD0022D1
:1036E400374BFDF747FD04001F200D00009B0333FB
:1036F4001856FFF78BFB00223B4BFEF7F7FC32001A
:103704003B00FEF7F3FC22002B00FEF7EFFC002247
:103714002B4BFDF72FFD22002B00FEF7E7FC029B4D
:10372400049005919868FFF79FFB02900391009B1A
:103734002020185EFFF76AFB0022184BFEF7D6FC28
:1037440032003B00FEF7D2FC009B04001E20185EF2
:103754000D00FFF75BFB0022244BFEF7C7FC0200C1
:103764000B0020002900FDF705FD02000B00029864
:103774000399FEF787FF009B04001A20185E0D00D2
:10378400FFF744FB00221A4BFEF7B0FC02000B00CB
:1037940020002900FEF7AAFC2CE0C0460000103FE0
:1037A4000000503F0000E03E0000203F0000B44015
:1037B400000044C0004055400000E03F0040EF409E
:1037C4000000F03F0000D03F000030410000F04016
:1037D4000000303F006AB8400000B03F004CDD40BC
:1037E40000DBFA4000C0F2400000503E00005040B0
:1037F4000000F03E049A059BFEF778FC04000D00DF
:10380400009B187EFFF730FB22002B00FEF76EFCB6
:10381400FB2300229B05FEF769FC02000B0000203D
:103824001849FEF72FFF22002B00FEF75FFC002251
:10383400154B04000D00FDF76BFC002816D1002287
:10384400002320002900FDF74FFC002810D000249D
:1038540000250DE000240D4D18E600240C4D15E65E
:1038640000240C4D1FE700240B4D1CE70024064DDB
:10387400019B1C615D6100200DB0F0BD0120404240
:10388400FAE7C0460000F03F00005940000044C081
:1038940000405540004CDD4000DBFA40F0B587B0F5
:1038A40001AC0E0007000021150020000822FFF7DC
:1038B4001DFB0C22002103A8FFF718FB002E26D0C5
:1038C4002B0008222100F720FFF730FD00281CD12F
:1038D400237862781B0312011343A278380012097B
:1038E400134303932279E37812011B031343627990
:1038F40003A9120913430493E38832005BBA9BB211
:1039040005932B001833FFF72FFD07B0F0BD0120FE
:103914004042FAE780B584B000AF78603960002394
:10392400FB6024E0C046C046C046C046C046C04610
:10393400C046C046C046C046C046C046C046C04653
:10394400C046C046C046C046C046C046C046C04643
:10395400C046C046C046C046C046C046C046C04633
:10396400C046C046C046C046FB680133FB60FB68E6
:103974007A689A42D6D8C046C046BD4604B080BDD7
:103984008021902010B50902C005FCF7E7FC10BDAA
:1039940070B50400064D074A29000720FFF77EFF93
:1039A400290018222000FFF7F5FA200070BDC04658
:1039B400400000205800002010B598B06846FFF77A
:1039C400E7FF02980399FFF7E5F90A2207A9FFF731
:1039D4008CFBFFF7BBFB124C2000FFF7D1FB0098D8
:1039E4000199FFF7D7F90A2207A9FFF77EFBFFF732
:1039F400ADFBE01CFFF7C4FB04980599FFF7CAF977
:103A04000A2207A9FFF771FBFFF7A0FBE01DFFF7F0
:103A1400B7FB20000A30FFF7B3FB18B010BDC04657
:103A24004A3F000870B586B004006846FFF7B0FF4F
:103A340000980199FDF780FB060004980599FDF7AD
:103A44007BFB050002980399FDF776FB03232060B6
:103A540020006660A560237306B070BD782310B59E
:103A64000C4C86B069460C4800930194FCF7F0FBBB
:103A7400802302A91B01094802930394FCF7E8FB85
:103A84000423074804A904930594FCF7E1FB06B05A
:103A940010BDC046010300020004004800080048AD
:103AA400000C00481FB580200121C002FCF77CFEF9
:103AB400802001210003FCF777FE8023084C69462F
:103AC4009B01084800930194FCF7C2FB802306483D
:103AD4005B0102A902930394FCF7BAFB1FBDC04625
:103AE40001030002000800480004004873B5802167
:103AF400FA24050049011148FCF730FCC82364008E
:103B04006C430F4E9B00E418331B80260D4D01932C
:103B1400B60131000C48FCF721FC00212000FFF71E
:103B2400F9FE31000848FCF71BFC013D0021019817
:103B3400FFF7F0FE002DECD173BDC0460004004831
:103B4400204E000070170000000800487FB54308AD
:103B5400032104000393FDF73BF90621060020002E
:103B6400FDF736F973006208241A9A1AE31A8024BE
:103B7400050001920293240140212448FCF7EEFB46
:103B840028000021FFF7C6FE04212148FCF7E8FBCA
:103B940021002048FCF7E2FB701B0021FFF7BAFE6E
:103BA40008211A48FCF7DCFB10211848FCF7D6FB67
:103BB400039B0021981BFFF7ADFE40211348FCF73F
:103BC400CFFB20211148FCF7C9FB01980021FFF726
:103BD400A1FE21000F48FCF7C3FB04210C48FCF7AD
:103BE400BDFB28000021FFF795FE10210748FCF7D4
:103BF400B7FB08210548FCF7B1FB02980021FFF749
:103C040089FE20210148FCF7ABFBB5E7000400481E
:103C1400000C00480008004810B5012802D1FFF745
:103C2400AFFE10BD802190200902C005FCF798FB6F
:103C3400F7E7000070B50C4B0C001D78054300201D
:103C4400FFF7EAFF0121094A094B15701889084258
:103C5400FCD099891470012219891142FCD09B89E6
:103C6400FFF78EFE70BDC0460E0000200C300140F0
:103C740000300140F8B5130014006A460833DB082D
:103C8400DB00D31A00AF9D466D460E4B22001B7815
:103C940018432870681CFFF77DF90020FFF7BCFF6C
:103CA400002301200849094AEE5C0E701689064279
:103CB400FCD0013396899C42F6DAFFF761FEBD46DB
:103CC400F8BDC0460E0000200C3001400030014019
:103CD400F8B50300684614000832D208D200821AEC
:103CE40000AF9546134A6D46002900D1124A127856
:103CF40019002A70E243D2172240681CFFF74AF9E0
:103D04000020FFF789FF012600230C4AA34203DDAC
:103D1400FFF736FEBD46F8BD022011890142FBD0F3
:103D2400E95C0748017011893142FCD09189013363
:103D3400ECE7C0460D0000200C00002000300140DC
:103D44000C30014010B5084B00201C78FFF764FFCD
:103D54000122064B1C70064B19891142FCD09B8929
:103D6400FFF70EFE10BDC0460A0000200C300140D3
:103D740000300140022110B5012804D19020C00573
:103D8400FCF7ECFA10BD9020C005FCF7E9FAF9E75E
:103D940073B50D0004000322244901A8FFF7FAF8C3
:103DA400FFF7D0FF224B30211878FFF743FF214B58
:103DB40001211878FFF73EFF1F4B01211878FFF708
:103DC40039FF1E4E1E4B3278187801A9FFF752FFB7
:103DD4001C4B3278187801A9FFF74CFF1A4B0021CD
:103DE4001878FFF727FF194B01211878FFF722FFF6
:103DF400174B01211878FFF71DFF164B2A0019787D
:103E04002000FFF765FF90200221C005FCF7A6FA09
:103E140000218220FFF77EFD0120FFF745F93220C3
:103E2400FFF742F90020FFF7A5FF73BD553F0008D7
:103E34000B000020150000201400002008000020C2
:103E440010000020120000201300002011000020A8
:103E54000F0000200900002070B50C008AB001900A
:103E6400110020001500FDF739F8C9B2002918D156
:103E740029002020FDF71CF90E1E12D1002D10D0B0
:103E84001B4B0A211878FFF7D5FEFA203100C00039
:103E9400FFF740FD002C06D1154B08211878FFF7D9
:103EA400C9FE0AB070BD2B002022634300939442E4
:103EB40002D81A001F231A40019B02A89919FFF780
:103EC40069F8202102A8FFF763FF009B202B0CDD7B
:103ED400202029004042FDF705F82418E4B2290007
:103EE4002020FCF7FFFF3618D4E70024F7E7C0468C
:103EF4003C0000200D488546002103E00C4B5B5834
:103F0400435004310B480C4B42189A42F6D30B4AE7
:103F140002E0002313600432094B9A42F9D3FFF7FD
:103F24006FF9FFF77DF8FFF735F9FEE70020002071
:103F3400CC3F0008000000201800002018000020DA
:103F440098000020FEE72043002050610020250057
:103F54000093BD6B0000000001020304010203048E
:103F640006070809201B00086019000882190008C8
:103F74009419000882190008BE1A00088219000862
:103F8400941900086019000860190008BE1A000896
:103F9400941900088C1900088C1900088C19000861
:103FA400CC1A00080D0A00537461727400000000FA
:103FB400F8B5C046F8BC08BC9E467047F8B5C04684
:083FC400F8BC08BC9E467047E2
:103FCC0000080048000000480301E107B0A0201DD4
:083FDC0010110A0603010000A8
:0400000508003EF9B8
:00000001FF
